{
  "_format": "hh3-artifact-1",
  "contractName": "FanFunding",
  "sourceName": "contracts/FanFunding.sol",
  "abi": [
    {
      "inputs": [],
      "stateMutability": "nonpayable",
      "type": "constructor"
    },
    {
      "inputs": [
        {
          "internalType": "address",
          "name": "sender",
          "type": "address"
        },
        {
          "internalType": "uint256",
          "name": "tokenId",
          "type": "uint256"
        },
        {
          "internalType": "address",
          "name": "owner",
          "type": "address"
        }
      ],
      "name": "ERC721IncorrectOwner",
      "type": "error"
    },
    {
      "inputs": [
        {
          "internalType": "address",
          "name": "operator",
          "type": "address"
        },
        {
          "internalType": "uint256",
          "name": "tokenId",
          "type": "uint256"
        }
      ],
      "name": "ERC721InsufficientApproval",
      "type": "error"
    },
    {
      "inputs": [
        {
          "internalType": "address",
          "name": "approver",
          "type": "address"
        }
      ],
      "name": "ERC721InvalidApprover",
      "type": "error"
    },
    {
      "inputs": [
        {
          "internalType": "address",
          "name": "operator",
          "type": "address"
        }
      ],
      "name": "ERC721InvalidOperator",
      "type": "error"
    },
    {
      "inputs": [
        {
          "internalType": "address",
          "name": "owner",
          "type": "address"
        }
      ],
      "name": "ERC721InvalidOwner",
      "type": "error"
    },
    {
      "inputs": [
        {
          "internalType": "address",
          "name": "receiver",
          "type": "address"
        }
      ],
      "name": "ERC721InvalidReceiver",
      "type": "error"
    },
    {
      "inputs": [
        {
          "internalType": "address",
          "name": "sender",
          "type": "address"
        }
      ],
      "name": "ERC721InvalidSender",
      "type": "error"
    },
    {
      "inputs": [
        {
          "internalType": "uint256",
          "name": "tokenId",
          "type": "uint256"
        }
      ],
      "name": "ERC721NonexistentToken",
      "type": "error"
    },
    {
      "inputs": [],
      "name": "ReentrancyGuardReentrantCall",
      "type": "error"
    },
    {
      "inputs": [
        {
          "internalType": "uint256",
          "name": "tokenId",
          "type": "uint256"
        }
      ],
      "name": "TokenDoesNotExist",
      "type": "error"
    },
    {
      "inputs": [],
      "name": "TransferFailed",
      "type": "error"
    },
    {
      "inputs": [],
      "name": "ZeroDonation",
      "type": "error"
    },
    {
      "anonymous": false,
      "inputs": [
        {
          "indexed": true,
          "internalType": "address",
          "name": "owner",
          "type": "address"
        },
        {
          "indexed": true,
          "internalType": "address",
          "name": "approved",
          "type": "address"
        },
        {
          "indexed": true,
          "internalType": "uint256",
          "name": "tokenId",
          "type": "uint256"
        }
      ],
      "name": "Approval",
      "type": "event"
    },
    {
      "anonymous": false,
      "inputs": [
        {
          "indexed": true,
          "internalType": "address",
          "name": "owner",
          "type": "address"
        },
        {
          "indexed": true,
          "internalType": "address",
          "name": "operator",
          "type": "address"
        },
        {
          "indexed": false,
          "internalType": "bool",
          "name": "approved",
          "type": "bool"
        }
      ],
      "name": "ApprovalForAll",
      "type": "event"
    },
    {
      "anonymous": false,
      "inputs": [
        {
          "indexed": false,
          "internalType": "uint256",
          "name": "_fromTokenId",
          "type": "uint256"
        },
        {
          "indexed": false,
          "internalType": "uint256",
          "name": "_toTokenId",
          "type": "uint256"
        }
      ],
      "name": "BatchMetadataUpdate",
      "type": "event"
    },
    {
      "anonymous": false,
      "inputs": [
        {
          "indexed": true,
          "internalType": "uint256",
          "name": "tokenId",
          "type": "uint256"
        },
        {
          "indexed": true,
          "internalType": "address",
          "name": "donor",
          "type": "address"
        },
        {
          "indexed": true,
          "internalType": "address",
          "name": "creator",
          "type": "address"
        },
        {
          "indexed": false,
          "internalType": "uint256",
          "name": "amount",
          "type": "uint256"
        },
        {
          "indexed": false,
          "internalType": "uint256",
          "name": "timestamp",
          "type": "uint256"
        }
      ],
      "name": "DonationReceived",
      "type": "event"
    },
    {
      "anonymous": false,
      "inputs": [
        {
          "indexed": false,
          "internalType": "uint256",
          "name": "_tokenId",
          "type": "uint256"
        }
      ],
      "name": "MetadataUpdate",
      "type": "event"
    },
    {
      "anonymous": false,
      "inputs": [
        {
          "indexed": true,
          "internalType": "uint256",
          "name": "tokenId",
          "type": "uint256"
        },
        {
          "indexed": true,
          "internalType": "address",
          "name": "creator",
          "type": "address"
        },
        {
          "indexed": false,
          "internalType": "string",
          "name": "tokenURI",
          "type": "string"
        }
      ],
      "name": "NFTMinted",
      "type": "event"
    },
    {
      "anonymous": false,
      "inputs": [
        {
          "indexed": true,
          "internalType": "address",
          "name": "from",
          "type": "address"
        },
        {
          "indexed": true,
          "internalType": "address",
          "name": "to",
          "type": "address"
        },
        {
          "indexed": true,
          "internalType": "uint256",
          "name": "tokenId",
          "type": "uint256"
        }
      ],
      "name": "Transfer",
      "type": "event"
    },
    {
      "inputs": [
        {
          "internalType": "address",
          "name": "to",
          "type": "address"
        },
        {
          "internalType": "uint256",
          "name": "tokenId",
          "type": "uint256"
        }
      ],
      "name": "approve",
      "outputs": [],
      "stateMutability": "nonpayable",
      "type": "function"
    },
    {
      "inputs": [
        {
          "internalType": "address",
          "name": "owner",
          "type": "address"
        }
      ],
      "name": "balanceOf",
      "outputs": [
        {
          "internalType": "uint256",
          "name": "",
          "type": "uint256"
        }
      ],
      "stateMutability": "view",
      "type": "function"
    },
    {
      "inputs": [
        {
          "internalType": "uint256",
          "name": "_tokenId",
          "type": "uint256"
        }
      ],
      "name": "donate",
      "outputs": [],
      "stateMutability": "payable",
      "type": "function"
    },
    {
      "inputs": [
        {
          "internalType": "uint256",
          "name": "tokenId",
          "type": "uint256"
        }
      ],
      "name": "getApproved",
      "outputs": [
        {
          "internalType": "address",
          "name": "",
          "type": "address"
        }
      ],
      "stateMutability": "view",
      "type": "function"
    },
    {
      "inputs": [
        {
          "internalType": "uint256",
          "name": "_tokenId",
          "type": "uint256"
        }
      ],
      "name": "getDonationCount",
      "outputs": [
        {
          "internalType": "uint256",
          "name": "",
          "type": "uint256"
        }
      ],
      "stateMutability": "view",
      "type": "function"
    },
    {
      "inputs": [
        {
          "internalType": "uint256",
          "name": "_tokenId",
          "type": "uint256"
        }
      ],
      "name": "getDonations",
      "outputs": [
        {
          "components": [
            {
              "internalType": "address",
              "name": "donor",
              "type": "address"
            },
            {
              "internalType": "uint256",
              "name": "amount",
              "type": "uint256"
            },
            {
              "internalType": "uint256",
              "name": "timestamp",
              "type": "uint256"
            }
          ],
          "internalType": "struct FanFunding.Donation[]",
          "name": "",
          "type": "tuple[]"
        }
      ],
      "stateMutability": "view",
      "type": "function"
    },
    {
      "inputs": [
        {
          "internalType": "address",
          "name": "owner",
          "type": "address"
        },
        {
          "internalType": "address",
          "name": "operator",
          "type": "address"
        }
      ],
      "name": "isApprovedForAll",
      "outputs": [
        {
          "internalType": "bool",
          "name": "",
          "type": "bool"
        }
      ],
      "stateMutability": "view",
      "type": "function"
    },
    {
      "inputs": [
        {
          "internalType": "string",
          "name": "_tokenURI",
          "type": "string"
        }
      ],
      "name": "mintNFT",
      "outputs": [
        {
          "internalType": "uint256",
          "name": "",
          "type": "uint256"
        }
      ],
      "stateMutability": "nonpayable",
      "type": "function"
    },
    {
      "inputs": [],
      "name": "name",
      "outputs": [
        {
          "internalType": "string",
          "name": "",
          "type": "string"
        }
      ],
      "stateMutability": "view",
      "type": "function"
    },
    {
      "inputs": [
        {
          "internalType": "uint256",
          "name": "tokenId",
          "type": "uint256"
        }
      ],
      "name": "ownerOf",
      "outputs": [
        {
          "internalType": "address",
          "name": "",
          "type": "address"
        }
      ],
      "stateMutability": "view",
      "type": "function"
    },
    {
      "inputs": [
        {
          "internalType": "address",
          "name": "from",
          "type": "address"
        },
        {
          "internalType": "address",
          "name": "to",
          "type": "address"
        },
        {
          "internalType": "uint256",
          "name": "tokenId",
          "type": "uint256"
        }
      ],
      "name": "safeTransferFrom",
      "outputs": [],
      "stateMutability": "nonpayable",
      "type": "function"
    },
    {
      "inputs": [
        {
          "internalType": "address",
          "name": "from",
          "type": "address"
        },
        {
          "internalType": "address",
          "name": "to",
          "type": "address"
        },
        {
          "internalType": "uint256",
          "name": "tokenId",
          "type": "uint256"
        },
        {
          "internalType": "bytes",
          "name": "data",
          "type": "bytes"
        }
      ],
      "name": "safeTransferFrom",
      "outputs": [],
      "stateMutability": "nonpayable",
      "type": "function"
    },
    {
      "inputs": [
        {
          "internalType": "address",
          "name": "operator",
          "type": "address"
        },
        {
          "internalType": "bool",
          "name": "approved",
          "type": "bool"
        }
      ],
      "name": "setApprovalForAll",
      "outputs": [],
      "stateMutability": "nonpayable",
      "type": "function"
    },
    {
      "inputs": [
        {
          "internalType": "bytes4",
          "name": "interfaceId",
          "type": "bytes4"
        }
      ],
      "name": "supportsInterface",
      "outputs": [
        {
          "internalType": "bool",
          "name": "",
          "type": "bool"
        }
      ],
      "stateMutability": "view",
      "type": "function"
    },
    {
      "inputs": [],
      "name": "symbol",
      "outputs": [
        {
          "internalType": "string",
          "name": "",
          "type": "string"
        }
      ],
      "stateMutability": "view",
      "type": "function"
    },
    {
      "inputs": [
        {
          "internalType": "uint256",
          "name": "tokenId",
          "type": "uint256"
        }
      ],
      "name": "tokenURI",
      "outputs": [
        {
          "internalType": "string",
          "name": "",
          "type": "string"
        }
      ],
      "stateMutability": "view",
      "type": "function"
    },
    {
      "inputs": [
        {
          "internalType": "address",
          "name": "",
          "type": "address"
        }
      ],
      "name": "totalDonatedBy",
      "outputs": [
        {
          "internalType": "uint256",
          "name": "",
          "type": "uint256"
        }
      ],
      "stateMutability": "view",
      "type": "function"
    },
    {
      "inputs": [
        {
          "internalType": "uint256",
          "name": "",
          "type": "uint256"
        }
      ],
      "name": "totalDonations",
      "outputs": [
        {
          "internalType": "uint256",
          "name": "",
          "type": "uint256"
        }
      ],
      "stateMutability": "view",
      "type": "function"
    },
    {
      "inputs": [],
      "name": "totalSupply",
      "outputs": [
        {
          "internalType": "uint256",
          "name": "",
          "type": "uint256"
        }
      ],
      "stateMutability": "view",
      "type": "function"
    },
    {
      "inputs": [
        {
          "internalType": "address",
          "name": "from",
          "type": "address"
        },
        {
          "internalType": "address",
          "name": "to",
          "type": "address"
        },
        {
          "internalType": "uint256",
          "name": "tokenId",
          "type": "uint256"
        }
      ],
      "name": "transferFrom",
      "outputs": [],
      "stateMutability": "nonpayable",
      "type": "function"
    }
  ],
  "bytecode": "0x608060405234801562000010575f80fd5b506040518060400160405280600a81526020016946616e46756e64696e6760b01b815250604051806040016040528060048152602001632320a72360e11b815250815f90816200006191906200011e565b5060016200007082826200011e565b5050600160075550620001e6565b634e487b7160e01b5f52604160045260245ffd5b600181811c90821680620000a757607f821691505b602082108103620000c657634e487b7160e01b5f52602260045260245ffd5b50919050565b601f82111562000119575f81815260208120601f850160051c81016020861015620000f45750805b601f850160051c820191505b81811015620001155782815560010162000100565b5050505b505050565b81516001600160401b038111156200013a576200013a6200007e565b62000152816200014b845462000092565b84620000cc565b602080601f83116001811462000188575f8415620001705750858301515b5f19600386901b1c1916600185901b17855562000115565b5f85815260208120601f198616915b82811015620001b85788860151825594840194600190910190840162000197565b5085821015620001d657878501515f19600388901b60f8161c191681555b5050505050600190811b01905550565b6117ff80620001f45f395ff3fe60806040526004361061011b575f3560e01c806370a082311161009d578063b88d4fde11610062578063b88d4fde14610346578063c87b56dd14610365578063e985e9c514610384578063f14faf6f146103a3578063fb37e883146103b6575f80fd5b806370a082311461029e5780637b4424b8146102bd57806395d89b41146102e85780639f1482e4146102fc578063a22cb46514610327575f80fd5b806323b872dd116100e357806323b872dd146101ea57806342842e0e14610209578063596d9ce2146102285780636352211e146102545780636eb8b37c14610273575f80fd5b806301ffc9a71461011f57806306fdde0314610153578063081812fc14610174578063095ea7b3146101ab57806318160ddd146101cc575b5f80fd5b34801561012a575f80fd5b5061013e610139366004611258565b6103d5565b60405190151581526020015b60405180910390f35b34801561015e575f80fd5b506101676103ff565b60405161014a91906112c0565b34801561017f575f80fd5b5061019361018e3660046112d2565b61048e565b6040516001600160a01b03909116815260200161014a565b3480156101b6575f80fd5b506101ca6101c5366004611304565b6104b5565b005b3480156101d7575f80fd5b506008545b60405190815260200161014a565b3480156101f5575f80fd5b506101ca61020436600461132c565b6104c4565b348015610214575f80fd5b506101ca61022336600461132c565b610552565b348015610233575f80fd5b506102476102423660046112d2565b610571565b60405161014a9190611365565b34801561025f575f80fd5b5061019361026e3660046112d2565b610602565b34801561027e575f80fd5b506101dc61028d3660046112d2565b5f908152600a602052604090205490565b3480156102a9575f80fd5b506101dc6102b83660046113c6565b61060c565b3480156102c8575f80fd5b506101dc6102d73660046113c6565b600b6020525f908152604090205481565b3480156102f3575f80fd5b50610167610651565b348015610307575f80fd5b506101dc6103163660046112d2565b60096020525f908152604090205481565b348015610332575f80fd5b506101ca6103413660046113df565b610660565b348015610351575f80fd5b506101ca61036036600461142c565b61066b565b348015610370575f80fd5b5061016761037f3660046112d2565b610683565b34801561038f575f80fd5b5061013e61039e366004611501565b61078e565b6101ca6103b13660046112d2565b6107bb565b3480156103c1575f80fd5b506101dc6103d0366004611532565b6109a0565b5f6001600160e01b03198216632483248360e11b14806103f957506103f982610a4c565b92915050565b60605f805461040d9061159e565b80601f01602080910402602001604051908101604052809291908181526020018280546104399061159e565b80156104845780601f1061045b57610100808354040283529160200191610484565b820191905f5260205f20905b81548152906001019060200180831161046757829003601f168201915b5050505050905090565b5f61049882610a9b565b505f828152600460205260409020546001600160a01b03166103f9565b6104c0828233610ad3565b5050565b6001600160a01b0382166104f257604051633250574960e11b81525f60048201526024015b60405180910390fd5b5f6104fe838333610ae0565b9050836001600160a01b0316816001600160a01b03161461054c576040516364283d7b60e01b81526001600160a01b03808616600483015260248201849052821660448201526064016104e9565b50505050565b61056c83838360405180602001604052805f81525061066b565b505050565b6060600a5f8381526020019081526020015f20805480602002602001604051908101604052809291908181526020015f905b828210156105f7575f848152602090819020604080516060810182526003860290920180546001600160a01b03168352600180820154848601526002909101549183019190915290835290920191016105a3565b505050509050919050565b5f6103f982610a9b565b5f6001600160a01b038216610636576040516322718ad960e21b81525f60048201526024016104e9565b506001600160a01b03165f9081526003602052604090205490565b60606001805461040d9061159e565b6104c0338383610bd2565b6106768484846104c4565b61054c3385858585610c70565b606061068e82610a9b565b505f82815260066020526040812080546106a79061159e565b80601f01602080910402602001604051908101604052809291908181526020018280546106d39061159e565b801561071e5780601f106106f55761010080835404028352916020019161071e565b820191905f5260205f20905b81548152906001019060200180831161070157829003601f168201915b505050505090505f61073a60408051602081019091525f815290565b905080515f0361074b575092915050565b81511561077d5780826040516020016107659291906115d6565b60405160208183030381529060405292505050919050565b61078684610d98565b949350505050565b6001600160a01b039182165f90815260056020908152604080832093909416825291909152205460ff1690565b6107c3610e09565b345f036107e357604051636370392160e11b815260040160405180910390fd5b5f818152600260205260409020546001600160a01b031661081a5760405163c927e5bf60e01b8152600481018290526024016104e9565b5f61082482610602565b5f838152600a60209081526040808320815160608101835233815234818501818152428386019081528454600180820187559589528789209451600390910290940180546001600160a01b0319166001600160a01b03909516949094178455905193830193909355915160029091015586845260099092528220805493945090929091906108b3908490611618565b9091555050335f908152600b6020526040812080543492906108d6908490611618565b90915550506040515f906001600160a01b0383169034908381818185875af1925050503d805f8114610923576040519150601f19603f3d011682016040523d82523d5f602084013e610928565b606091505b505090508061094a576040516312171d8360e31b815260040160405180910390fd5b604080513481524260208201526001600160a01b03841691339186917f8e69bc788e5d6621e26938c52b6fbabf44517a4b20cbb5c74bc5456da5d1a283910160405180910390a4505061099d6001600755565b50565b600880545f91826109b08361162b565b90915550506008546109c23382610e33565b610a018185858080601f0160208091040260200160405190810160405280939291908181526020018383808284375f92019190915250610e4c92505050565b336001600160a01b0316817f06becd955c918828f6e985541acbf49cc842c9e9bd569fffc7698e721ef135758686604051610a3d929190611643565b60405180910390a39392505050565b5f6001600160e01b031982166380ac58cd60e01b1480610a7c57506001600160e01b03198216635b5e139f60e01b145b806103f957506301ffc9a760e01b6001600160e01b03198316146103f9565b5f818152600260205260408120546001600160a01b0316806103f957604051637e27328960e01b8152600481018490526024016104e9565b61056c8383836001610e9b565b5f828152600260205260408120546001600160a01b0390811690831615610b0c57610b0c818486610f9f565b6001600160a01b03811615610b4657610b275f855f80610e9b565b6001600160a01b0381165f90815260036020526040902080545f190190555b6001600160a01b03851615610b74576001600160a01b0385165f908152600360205260409020805460010190555b5f8481526002602052604080822080546001600160a01b0319166001600160a01b0389811691821790925591518793918516917fddf252ad1be2c89b69c2b068fc378daa952ba7f163c4a11628f55a4df523b3ef91a4949350505050565b6001600160a01b038216610c0457604051630b61174360e31b81526001600160a01b03831660048201526024016104e9565b6001600160a01b038381165f81815260056020908152604080832094871680845294825291829020805460ff191686151590811790915591519182527f17307eab39ab6107e8899845ad3d59bd9653f200f220920489ca2b5937696c31910160405180910390a3505050565b6001600160a01b0383163b15610d9157604051630a85bd0160e11b81526001600160a01b0384169063150b7a0290610cb2908890889087908790600401611671565b6020604051808303815f875af1925050508015610cec575060408051601f3d908101601f19168201909252610ce9918101906116ad565b60015b610d53573d808015610d19576040519150601f19603f3d011682016040523d82523d5f602084013e610d1e565b606091505b5080515f03610d4b57604051633250574960e11b81526001600160a01b03851660048201526024016104e9565b805160208201fd5b6001600160e01b03198116630a85bd0160e11b14610d8f57604051633250574960e11b81526001600160a01b03851660048201526024016104e9565b505b5050505050565b6060610da382610a9b565b505f610db960408051602081019091525f815290565b90505f815111610dd75760405180602001604052805f815250610e02565b80610de184611003565b604051602001610df29291906115d6565b6040516020818303038152906040525b9392505050565b600260075403610e2c57604051633ee5aeb560e01b815260040160405180910390fd5b6002600755565b6104c0828260405180602001604052805f815250611093565b5f828152600660205260409020610e63828261170d565b506040518281527ff8e1a15aba9398e019f0b49df1a4fde98ee17ae345cb5f6b5e2c27f5033e8ce79060200160405180910390a15050565b8080610eaf57506001600160a01b03821615155b15610f70575f610ebe84610a9b565b90506001600160a01b03831615801590610eea5750826001600160a01b0316816001600160a01b031614155b8015610efd5750610efb818461078e565b155b15610f265760405163a9fbf51f60e01b81526001600160a01b03841660048201526024016104e9565b8115610f6e5783856001600160a01b0316826001600160a01b03167f8c5be1e5ebec7d5bd14f71427d1e84f3dd0314c0f7b2291e5b200ac8c7c3b92560405160405180910390a45b505b50505f90815260046020526040902080546001600160a01b0319166001600160a01b0392909216919091179055565b610faa8383836110aa565b61056c576001600160a01b038316610fd857604051637e27328960e01b8152600481018290526024016104e9565b60405163177e802f60e01b81526001600160a01b0383166004820152602481018290526044016104e9565b60605f61100f8361110b565b60010190505f8167ffffffffffffffff81111561102e5761102e611418565b6040519080825280601f01601f191660200182016040528015611058576020820181803683370190505b5090508181016020015b5f19016f181899199a1a9b1b9c1cb0b131b232b360811b600a86061a8153600a850494508461106257509392505050565b61109d83836111e2565b61056c335f858585610c70565b5f6001600160a01b038316158015906107865750826001600160a01b0316846001600160a01b031614806110e357506110e3848461078e565b806107865750505f908152600460205260409020546001600160a01b03908116911614919050565b5f8072184f03e93ff9f4daa797ed6e38ed64bf6a1f0160401b83106111495772184f03e93ff9f4daa797ed6e38ed64bf6a1f0160401b830492506040015b6d04ee2d6d415b85acef81000000008310611175576d04ee2d6d415b85acef8100000000830492506020015b662386f26fc10000831061119357662386f26fc10000830492506010015b6305f5e10083106111ab576305f5e100830492506008015b61271083106111bf57612710830492506004015b606483106111d1576064830492506002015b600a83106103f95760010192915050565b6001600160a01b03821661120b57604051633250574960e11b81525f60048201526024016104e9565b5f61121783835f610ae0565b90506001600160a01b0381161561056c576040516339e3563760e11b81525f60048201526024016104e9565b6001600160e01b03198116811461099d575f80fd5b5f60208284031215611268575f80fd5b8135610e0281611243565b5f5b8381101561128d578181015183820152602001611275565b50505f910152565b5f81518084526112ac816020860160208601611273565b601f01601f19169290920160200192915050565b602081525f610e026020830184611295565b5f602082840312156112e2575f80fd5b5035919050565b80356001600160a01b03811681146112ff575f80fd5b919050565b5f8060408385031215611315575f80fd5b61131e836112e9565b946020939093013593505050565b5f805f6060848603121561133e575f80fd5b611347846112e9565b9250611355602085016112e9565b9150604084013590509250925092565b602080825282518282018190525f919060409081850190868401855b828110156113b957815180516001600160a01b0316855286810151878601528501518585015260609093019290850190600101611381565b5091979650505050505050565b5f602082840312156113d6575f80fd5b610e02826112e9565b5f80604083850312156113f0575f80fd5b6113f9836112e9565b91506020830135801515811461140d575f80fd5b809150509250929050565b634e487b7160e01b5f52604160045260245ffd5b5f805f806080858703121561143f575f80fd5b611448856112e9565b9350611456602086016112e9565b925060408501359150606085013567ffffffffffffffff80821115611479575f80fd5b818701915087601f83011261148c575f80fd5b81358181111561149e5761149e611418565b604051601f8201601f19908116603f011681019083821181831017156114c6576114c6611418565b816040528281528a60208487010111156114de575f80fd5b826020860160208301375f60208483010152809550505050505092959194509250565b5f8060408385031215611512575f80fd5b61151b836112e9565b9150611529602084016112e9565b90509250929050565b5f8060208385031215611543575f80fd5b823567ffffffffffffffff8082111561155a575f80fd5b818501915085601f83011261156d575f80fd5b81358181111561157b575f80fd5b86602082850101111561158c575f80fd5b60209290920196919550909350505050565b600181811c908216806115b257607f821691505b6020821081036115d057634e487b7160e01b5f52602260045260245ffd5b50919050565b5f83516115e7818460208801611273565b8351908301906115fb818360208801611273565b01949350505050565b634e487b7160e01b5f52601160045260245ffd5b808201808211156103f9576103f9611604565b5f6001820161163c5761163c611604565b5060010190565b60208152816020820152818360408301375f818301604090810191909152601f909201601f19160101919050565b6001600160a01b03858116825284166020820152604081018390526080606082018190525f906116a390830184611295565b9695505050505050565b5f602082840312156116bd575f80fd5b8151610e0281611243565b601f82111561056c575f81815260208120601f850160051c810160208610156116ee5750805b601f850160051c820191505b81811015610d8f578281556001016116fa565b815167ffffffffffffffff81111561172757611727611418565b61173b81611735845461159e565b846116c8565b602080601f83116001811461176e575f84156117575750858301515b5f19600386901b1c1916600185901b178555610d8f565b5f85815260208120601f198616915b8281101561179c5788860151825594840194600190910190840161177d565b50858210156117b957878501515f19600388901b60f8161c191681555b5050505050600190811b0190555056fea26469706673582212207f7c4e7c38a7f9997019e1dfacdfaddc128ad31a5e188f8938ecd21052e7c3ca64736f6c63430008140033",
  "linkReferences": {},
  "deployedLinkReferences": {},
  "immutableReferences": {},
  "inputSourceName": "project/contracts/FanFunding.sol",
  "buildInfoId": "solc-0_8_20-6e3e93a6d5dfa41c13a1fe4951eb8487fb7ffc37"
}